:020000040800F2
:10000000B0270020450100084F2E0008D32000082B
:100010004D2E00082B020008113F000800000000D0
:100020000000000000000000000000003B3200085B
:100030008D120008000000005D310008F939000849
:100040005F0100085F0100085F0100085F01000810
:100050005F0100085F0100085F0100085F01000800
:100060005F0100085F0100085F0100085F010008F0
:100070001912000825120008311200083D1200086C
:1000800049120008551200085F010008593E000897
:10009000813E00085F0100085F0100085F01000861
:1000A0005F0100085F0100085F0100085F010008B0
:1000B0005F0100085F0100085F0100085F010008A0
:1000C0005F0100085F0100085F0100085F01000890
:1000D0005F010008B13D0008053E00085F0100080F
:1000E0005F0100085F0100085F0100085F01000870
:1000F0005F0100085F0100085F0100085F01000860
:100100005F0100085F0100085F0100085F0100084F
:100110005F0100085F0100085F0100085F0100083F
:100120005F0100085F0100085F0100085F0100082F
:10013000DFF80CD000F03CF80048004761420008AE
:10014000B02700200648804706480047FEE7FEE744
:10015000FEE7FEE7FEE7FEE7FEE7FEE7FEE7FEE777
:10016000FD3900083101000840EA01039B0703D074
:1001700009E008C9121F08C0042AFAD203E011F8E6
:10018000013B00F8013B521EF9D27047D2B201E0A8
:1001900000F8012B491EFBD270470022F6E710B58C
:1001A00013460A4604461946FFF7F0FF204610BDE5
:1001B000064C074D06E0E06840F0010394E80700B4
:1001C00098471034AC42F6D3FFF7B6FFA4550008A9
:1001D000C455000870B58C1810F8015B15F00703C2
:1001E00001D110F8013B2A1106D110F8012B03E0D0
:1001F00010F8016B01F8016B5B1EF9D12B0705D4D8
:100200000023521E0DD401F8013BFAE710F8013B20
:10021000CB1A921C03E013F8015B01F8015B521E3C
:10022000F9D5A142D8D3002070BDFEE770B50D46C8
:100230000478002C00D101240948012C06D0022C9E
:1002400009D000242C704FF0011070BD0121017005
:1002500002F04AFFF6E70221017002F0FFFEF1E72B
:100260007C1500200278407842EA002000EB400034
:10027000C000401EFDD10870004870470100020018
:100280007FB50546084900240C700194029440F69D
:1002900003610091022103916946044801F086F947
:1002A0002C7004B0012070BD7C150020000C0140B2
:1002B00030B504464278801C002A0BD010F8013B70
:1002C0009D0703D5DB0602D5001D00E0001D521E70
:1002D000002AF3D100220A704A70001B0004801C1F
:1002E00030BD00002DE9FF470D460278DFF8488059
:1002F0000027002A07D0012A1BD0FF202870404683
:1003000004B0BDE8F087467802974FF4005400949B
:100310001120019002200390DFF8209069464846A2
:1003200001F044F9F00702D0C9F8144001E0C9F81F
:1003300010402F704046E3E701000200001001402A
:100340000022062824D006DC052821D2DFE800F0B0
:10035000202020200C00F0280DD0FD2818D0FE28E9
:1003600013D0FF2814D10AE00A4802680A604068E6
:10037000486008220CE013200870012208E04020A9
:10038000087000204870022202E00120087001225B
:100390001046704738540008F0B510F8014B104E65
:1003A000B4750022002308E010F8015BF7183D76D1
:1003B00006EB43073A842A445B1CA342F4D3002093
:1003C00006E033181B7ED21A06EB40031A86401C47
:1003D000A042F6D300200870641C2004401CF0BD2D
:1003E0007C15002010B50C460E490A78022A14D15B
:1003F0000078C875897D88420FD20E2001F086FEF4
:1004000001F0B8FF002121706070010AA170010C99
:10041000E170000E2071044810BDFF2020704FF0E5
:10042000011010BD7C150020050001002DE9F047EA
:10043000002201F8012B88460125012410F8017BD8
:1004400015E010F8016B814642464946304601F0FE
:10045000FFFF06F03F0000B94020C01DC10809EBB6
:1004600001000D446D1C320601D588440C447F1EEA
:10047000791CE6D1204665F31F40BDE8F0870000F7
:100480002DE9F04F85B004460494002002900391BA
:100490008E1CC44900220A7000258146C24A14F805
:1004A000011BD175927D91427ED214F8018BB8F177
:1004B000000F7AD014F801BB5FEACB7101D00B2793
:1004C00000E00A275FEA8B7170D5B9F1000F3AD0CE
:1004D000B548B0F80AA0BD4210D15FEACB600DD498
:1004E0006946584602F008F802281ED1BAF1010AFE
:1004F0001BD3AC4909780029F2D016E00A2D03D0AD
:100500000A25284601F002FEDFF8989269460E207F
:1005100001F0F2FF022806D1BAF1010A03D399F8DB
:1005200000100029F2D04FF0000901283DD10099B8
:1005300031700099090A71700099090CB170009925
:10054000090EF170361D5FEACB6154D520786178D1
:10055000E27840EA0120A178090441EA02610843F7
:100560000190241D9048B0F80CA0BD4203D03D4638
:10057000284601F0CBFD8C4847890021584601F000
:10058000BBFF022806D17F1E791C03D0854909785C
:100590000029F2D0012808D1834847896946584686
:1005A00001F0AAFF022802E0DEE0A0E041E006D16F
:1005B0007F1E791C03D07B4909780029EED00128E1
:1005C0000DD17949009A09691140019A914206D0EA
:1005D000BAF1010A03D3734909780029DCD07249C2
:1005E000009A09691140019A914201D040F010002F
:1005F00001287CD172E0B9F1000F6FD1BD4203D068
:100600003D46284601F082FD67484789DFF894A1FE
:100610000021584601F070FF022806D17F1E791C88
:1006200003D09AF800100029F2D0012864D1814645
:1006300054E0B9F1000F25D00A2D03D00A25284631
:1006400001F064FD5848B0F80AA069460E2001F098
:1006500053FF022806D1BAF1010A03D351490978A0
:100660000029F2D0012847D1009830700098000A84
:1006700070700098000CB0700098000EF070361D7D
:100680004FF0000920786178E27840EA0120A178F3
:10069000090441EA026108430090241D5FEA8B616E
:1006A00003D541490861012018E0BD4203D03D4611
:1006B000284601F02BFD3C484789DFF8E8A0694651
:1006C000584601F019FF022806D17F1E791C03D07D
:1006D0009AF800100029F2D001280DD10299491C86
:1006E00002913049097811B9A8F1010800E003E04E
:1006F000B8F1000F7FF4DEAEB8F1000F0DD014F8A2
:10070000011B8A0703D5C90602D5241D00E0241D5C
:10071000A8F10108B8F1000FF1D1012834D10A2D58
:1007200002D00A2001F0F2FCB9F1000F1DD01E48E2
:1007300045891C4F69460E2001F0DEFE022805D1D6
:100740006D1E691C02D039780029F3D001281BD115
:10075000009931700099090A71700099090CB17003
:100760000099090EF170361D0EE00F4845890D4FB6
:1007700000210E2001F0C0FE022805D16D1E691C6B
:1007800002D039780029F3D0DDE902121170039903
:1007900048700398311A049805B0201A41EA0040C5
:1007A000BDE8F08F1D0000207C1500202DE9F84FDA
:1007B0000446002600208846CF1C524900220A70B9
:1007C000DFF844B114F8011B8BF817109BF81620C2
:1007D000914254D22178627841EA0225A41C002D6E
:1007E0004DD014F8019B5FEAC97002D04FF00B0A9C
:1007F00001E04FF00A0A504601F088FC5FEA897078
:100800005DD541484489DFF8FCB00021484601F03D
:1008100073FE022806D1641E611C03D09BF80010F1
:100820000029F2D0012862D126E03DB9BAF10A0FC1
:1008300002D00A2001F06AFC4FF00E0932484489C8
:100840006946484601F058FE022806D1641E611C24
:1008500003D09BF800100029F2D0012847D100995D
:1008600039700099090A79700099090CB9700099DA
:10087000090EF9703F1D761C6D1E691CD5D136E03E
:1008800020786178E27840EA0120A178090441EA01
:10089000026108430090241D1B48B0F80AB0694665
:1008A000484601F029FE022806D1BBF1010B03D313
:1008B000144909780029F2D0012818D1761C6D1E40
:1008C000681CDDD1BAF10A0F02D00A2001F01EFC2B
:1008D0000D4844890B4D00210E2001F00DFE022829
:1008E00005D1641E611C02D029780029F3D088F854
:1008F0000060310A88F8011088F80200A7EB0800B0
:10090000BDE8F88F1D0000207C15002070B504465E
:100910000D460E492078C875897D884203D3FF2093
:100920002870012070BD082001F0F0FB6078A178EC
:10093000227940EA0120E178090441EA0261084392
:1009400002F07AF800202870012070BD7C1500208C
:1009500010B50278A2F180031F2B02D800F066F8D0
:1009600010BD01F8012B0C4610F8011B172957D2B6
:10097000DFE801F00C14181C44484C565020245653
:1009800056565656282C3034383C40000078611CAE
:10099000FFF7D6FC207000F1021010BD2146FFF7D2
:1009A000A1FC3AE02146FFF741FC36E02046FFF784
:1009B00067FC32E02146FFF755FC2EE0204600F0B0
:1009C0003DF82AE0214600F0B5FA26E0214600F085
:1009D0007FFA22E0214600F07DFB1EE0214600F078
:1009E0003DF81AE02146FFF721FD16E02146FFF70A
:1009F000D3FC12E02146FFF7F5FC0EE0214600F0A3
:100A0000DFFB0AE0214600F0A5FB06E0214600F0EE
:100A1000AFFB02E0214600F0E9FB00F1011010BD40
:100A2000FF2004F8010C4FF0011010BD4FF001122F
:100A300003780B70007880381046704700214170B1
:100A400001700220704710B502F000F902F0BAF808
:100A500002F06EF9BDE8104002F090B90078064A45
:100A600000F003035B1C1375C0F380005075002079
:100A700008704FF0011070477C1500202DE9F04FF1
:100A800087B0044606940020049005918D1CDFF881
:100A9000DCA200218AF80010002703916678A41CCC
:100AA000002E7DD014F8018B5FEA887179D587B369
:100AB000AF48B0F80A9008F0110001280DD101A943
:100AC000404602F0BBFB022815D1B9F1010912D34F
:100AD0009AF800100029F2D00DE001A90E2002F0D2
:100AE000ADFB022806D1B9F1010903D39AF8001031
:100AF0000029F2D00027012852D1019929700199CB
:100B0000090A69700199090CA9700199090EE97027
:100B10002D1D5FEAC86152D520786178E27840EAFD
:100B20000120A178090441EA026108430290241DD2
:100B30008F48B0F80CB05FEAC87011D08C48B0F89C
:100B40000A900021404602F079FB022806D1B9F153
:100B5000010903D39AF800100029F2D001281FD10F
:100B60008348B0F80A9001A9404602F067FB0228CA
:100B700006D1B9F1010903D39AF800100029F2D087
:100B8000012810D17A49019A09691140029A9142CB
:100B900009D0BBF1010B06D39AF80010002901E03F
:100BA0008AE042E0DCD07249019A09691140029A58
:100BB000914201D040F0100001287DD132E06C4913
:100BC000B1F80A905FEAC87111D05FBB00214046BE
:100BD00002F034FB022806D1B9F1010903D39AF8D7
:100BE00000100029F2D0012872D101271AE001A9D2
:100BF000404602F023FB022806D1B9F1010903D3D4
:100C00009AF800100029F2D0012861D101992970C9
:100C10000199090A69700199090CA9700199090ED5
:100C2000E9702D1D0021039148E0F7B15048B0F85C
:100C30000A9001A90E2002F001FB022806D1B9F1A9
:100C4000010903D39AF800100029F2D001283FD1FE
:100C5000019828700198000A68700198000CA8702B
:100C60000198000EE8702D1D002720786178E27849
:100C700040EA0120A178090441EA02610843019099
:100C8000241D5FEA886103D539490861012015E018
:100C90003748B0F80A9001A9404602F0CFFA02287E
:100CA00006D1B9F1010903D39AF800100029F2D056
:100CB00001280DD1012100E00AE003910499491CAB
:100CC00004919AF8001019B9761E002E7FF4EAAE4E
:100CD0005EB114F8011B8A0703D5C90602D5241D8D
:100CE00000E0241D761E002EF3D101282FD1EFB194
:100CF0001F48468901A90E2002F0A0FA022806D159
:100D0000761E711C03D09AF800100029F2D0012839
:100D10001DD1019929700199090A69700199090C7D
:100D2000A9700199090EE9702D1D10E0039971B1A8
:100D30000F48468900210E2002F080FA022806D1D1
:100D4000761E711C03D09AF800100029F2D0DDE95C
:100D500004121170059948700598291A069807B071
:100D6000201A41EA0040BDE8F08F00001D0000207D
:100D70007C1500202DE9F84F044600260020894606
:100D8000CF1CDFF818A100218AF80010641C21781C
:100D9000627841EA0225A41C002D74D014F8018B5E
:100DA000DFF8FCB05FEA88715BD55FEAC87135D0C7
:100DB000BBF80A400021404602F040FA022806D162
:100DC000641E611C03D09AF800100029F2D001289B
:100DD00059D123E025B95FEAC87001D04FF00E0861
:100DE000BBF80A406946404602F028FA022806D1BC
:100DF000641E611C03D09AF800100029F2D001286B
:100E000041D1009939700099090A79700099090C4B
:100E1000B9700099090EF9703F1D761C6D1E691C92
:100E2000D8D130E020786178E27840EA0120A178DA
:100E3000090441EA026108430090241D1848B0F8F3
:100E40000AB06946404602F0F9F9022806D1BBF122
:100E5000010B03D39AF800100029F2D0012812D117
:100E6000761C6D1E681CDDD10D48448900210E20C2
:100E700002F0E4F9022806D1641E611C03D09AF83E
:100E800000100029F2D089F80060310A89F80110B9
:100E900089F80200A7EB0900BDE8F88F1D000020CB
:100EA0007C15002038B50C464178827841EA022250
:100EB000C1780079090441EA006002430092694662
:100EC000002002F0BBF900202070012038BD000096
:100ED00030B50278437842EA03228378C0781B0455
:100EE00043EA006002430F48002A08D00E4D002458
:100EF0000E4BAA4206D301225A705A600FE0FF221D
:100F00000A7030BD5C700A4D1544B5FBF2F2022A3E
:100F100003D90325B2FBF5F200E001225A600C7000
:100F200030BD00000100040080A812017C150020E3
:100F3000FF5025022DE9F04786B0884605784478B1
:100F40008178C27841EA022601794079090441EAB0
:100F5000006006435849E00701F1040206D0EB07A0
:100F60004FF4806001D0086000E01060A00706D553
:100F7000AB074FF4007001D5086000E01060600717
:100F80004FF0010308D5A808C00702D04B48036002
:100F900002E04A48001D036020064FF000072BD5F1
:100FA000E80902970397049705975FEAC0794448D8
:100FB0004FF4006C4FF0020A09D0C1F800C0CDF820
:100FC00008C0CDF814A002A900F0F0FA14E0C2F8AD
:100FD00000C0CDF808C0112103910493CDF814A0EE
:100FE00002A900F0E3FA03F0D1F936480190042297
:100FF00001A9354803F046FB304B2F481B1F001F4B
:10100000DEB332498E4200D90E464FF0E02CCCF8C8
:10101000187006EBC601C900CCF814100521CCF8F5
:101020001010E10704D00168C1F38022AA421CD14C
:10103000A10705D50168C1F34021B1EB550F14D1CB
:10104000610705D51968C1F30001B1EB950F0CD10B
:10105000A10602D5B7EB551F07D121060BD50168B4
:10106000C1F3C021B1EBD51F05D0DCF81010C1F3DE
:1010700000410029D5D0CCF810700168C1F380215F
:101080000268C2F3402241EA42021968C1F300013A
:1010900042EA8102094908390968C1F3400142EA7C
:1010A000C1010068C00A41EAC01088F8000006B01B
:1010B0000748BDE8F0870000100C0140100801400F
:1010C000000C01400400FA050CED00E0C0C62D0044
:1010D0000100060070B50D4610F8014B0146002CCA
:1010E00001D14FF48074204602F002FC00202870E9
:1010F000E41DE008401C0004401C70BD08B5134806
:1011000000210170417022224260017264224281FA
:101110008181016101220275417581750C488169E7
:1011200041F008018161816901F008010091816944
:1011300041F010018161806900F01000009001F021
:101140008DFFBDE8084001F0CFBF00007C150020F6
:1011500000100240054A1278012A03D0022A03D067
:10116000FFF7A6B8FFF78ABCFFF78AB97C15002005
:1011700010B504461148007801280CD002280ED082
:1011800000200870487088700320E17889070AD52C
:1011900040F4802010BD2046FFF7ECFDF5E7204627
:1011A000FFF704FBF1E76178A27841EA022104220B
:1011B00002EB810140EA014010BD00007C150020D7
:1011C00010B5084A037813724378847843EA0423FD
:1011D0005381C378007943EA002090810020087091
:1011E000014810BD7C1500200100050010B5094A1A
:1011F0001278012A07D0022A08D0FF2008700120A7
:1012000040F4A02010BDFFF74DFEF9E7FFF77EFB8D
:10121000F6E700007C150020014800F0A7B80000A8
:1012200038150020014800F0A1B80000F414002097
:10123000014800F09BB8000034130020014800F082
:1012400095B8000078130020014800F08FB8000026
:10125000BC130020014800F089B8000000140020F1
:1012600030B590F840500124AC40C56B6C60046808
:1012700063604368102B04D0036899600068C26003
:1012800030BD03689A600068C16030BD704710B51A
:1012900090F821100022022905D00421816380F8F2
:1012A0002020012010BD01680B6823F00E030B60A5
:1012B00001680B6823F001030B6090F84030C46BA9
:1012C000012101FA03F3636080F8211080F82020E7
:1012D000104610BD10B5002490F82110022903D04B
:1012E0000421816301243DE001680A6822F00E02B6
:1012F0000A6001680A6822F001020A601A4A01685D
:10130000914201D1012121E0174A1432914201D1C9
:1013100010211BE0144A2832914201D1891515E0B1
:10132000114A3C32914201D189140FE00E4A5032E9
:10133000914202D14FF4803108E00B4A643291426D
:1013400002D14FF4801101E04FF08071064A083A53
:101350005160012180F82110002180F82010416B9C
:1013600001B18847204610BD080002402DE9F05F1A
:10137000C16B0A6801680B68046C4FF0040A0AFA32
:1013800004FA4E4D4E4E4F4FDFF83CC1DFF83C8122
:10139000DFF83C911AEA020F31D05FEA437A2ED58A
:1013A0000A68920603D40A6822F004020A600168FF
:1013B000A94201D1042119E0B14201D1402115E037
:1013C000B94202D14FF4806110E0614502D14FF47F
:1013D00080410BE0414502D14FF4802106E04945B0
:1013E00002D14FF4800101E04FF08061334A083AA6
:1013F0005160C16A00295FD0BDE8F05F08474FF037
:10140000020E0EFA04FE1EEA020F4FF0000A4FF021
:10141000010B35D05FEA837E32D50A68920605D487
:101420000A6822F00A020A6080F821B00168A94225
:1014300001D1022119E0B14201D1202115E0B942C8
:1014400002D14FF4007110E0614502D14FF4005118
:101450000BE0414502D14FF4003106E0494502D18D
:101460004FF4001101E04FF00071144A083A516046
:1014700080F820A0816A00291ED0BDE8F05F0847EF
:101480000825A540154217D01A0715D50A6822F07D
:101490000E020A6090F84010C26B0BFA01F1516025
:1014A000C0F838B080F821B080F820A0016B002986
:1014B00002D0BDE8F05F0847BDE8F09F0800024099
:1014C0001C0002403000024044000240580002402C
:1014D0006C00024030B5002827D0001D144A50F897
:1014E000041C14230A44B2FBF3F29200C263114AB3
:1014F0008263022242770A6843F6F0739A43D0E986
:1015000000342343D0E902452C4323430469234399
:10151000446923438469234313430B6000214163DF
:10152000012242770177002030BD012030BD00004C
:10153000F8FFFDBF0000024070B50446002594F896
:10154000200001280CD0012084F8200094F82160AC
:101550000020012E06D084F820000225284670BD08
:10156000022070BD022684F82160A063206806680E
:1015700026F0010606602046FFF772FEE06A28B1F9
:101580002068016841F00E01016009E020680168EF
:1015900021F0040101602068016841F00A01016046
:1015A0002068016841F001010160D7E72DE9F84F9B
:1015B00000240023DFF8C4914FF00F0809F1040A5A
:1015C0000AF1040B0BF1040ED1E00127A7403A40C9
:1015D000BA4275D1DFF8A8C14D68A5EB0C06654588
:1015E0002BD00DDC032D34D005DC35B3012D19D003
:1015F000022D2FD11BE0112D16D0122D2AD119E06A
:10160000B6F5881F19D006DCB6F5803F15D0B6F5C3
:10161000801F1FD111E0B6F5001F0ED0B6F5041FD4
:1016200018D10AE0CB6815E0CB681B1D12E0CB682F
:1016300008330FE0CB680C330CE08B6823B1012B2F
:1016400004D00823476105E0042303E00823076171
:1016500000E00023FF2A01D8054601E000F104055F
:1016600002D84FEA840603E0A4F108064FEA860692
:101670002F6808FA06FC27EA0C0703FA06F647EA81
:1016800006072F604D68ED0070D53E4DAE6946F0FF
:101690000106AE61AD6905F0010500953A4D24F0F3
:1016A00003067719BE68A5072D0F08FA05FC26EA80
:1016B0000C06DFF8D8C0604503D14FF0000C17E0EE
:1016C00054E0DFF8CCC0604502D14FF0010C0FE0D0
:1016D000DFF8C0C0604502D14FF0020C08E0DFF82F
:1016E000B8C0604502D14FF0030C01E04FF0040C8C
:1016F0000CFA05FC4CEA060CC7F808C04D68ED036F
:1017000005D5D9F800501543C9F8005004E0D9F8C0
:1017100000509543C9F800504D68AD0305D5DAF87F
:1017200000501543CAF8005004E0DAF80050954321
:10173000CAF800504D68ED0205D5DBF8005015439E
:10174000CBF8005004E0DBF800509543CBF8005094
:101750004D68AD0205D5DEF800501543CEF80050B7
:1017600004E0DEF800509543CEF80050641C0A688F
:1017700032FA04F57FF429AFBDE8F88F0004014088
:10178000000011100010024000000140000801405C
:10179000000C01400010014000140140002A01D05B
:1017A00001617047090401617047000001488068C9
:1017B000704700009C1100200248816802781144A3
:1017C000816070479C110020002809DB00F01F0297
:1017D000012191404009800000F1E020C0F8001193
:1017E00070470000F0B40D460D4B1B68C3F3022395
:1017F000C3F10704042C00D90424191D072901D2C0
:10180000002300E0DB1E012606FA04F1491E2940F0
:1018100099409E40761E16403143F0BC02F079BBE1
:101820000CED00E0014800687047000098110020AE
:1018300000B5FFF7F7FF04494968044AC1F30221E4
:10184000515CC84000BD0000001002409C550008DB
:1018500000B5FFF7E7FF04494968044AC1F3C22114
:10186000515CC84000BD0000001002409C550008BB
:1018700070B50446002C05D00025A56294F85100EF
:1018800010B106E0012070BD84F85050204600F0F1
:101890002FF8022084F851002068016821F04001EF
:1018A0000160D4E901010843D4E90312114308435C
:1018B00061690843218B01F400710843E169084321
:1018C000216A0843A16A084321680860A0690421CD
:1018D00001EA1040216848602068C16921F4006174
:1018E000C1616565012084F85100002070BD0000D1
:1018F000F0B585B006460024019402940394049444
:10190000384D3168384802220323A94243D1816906
:1019100041F480518161816901F4805100918169B4
:1019200041F004018161806900F004000090A02072
:101930000190029204932D4D01A92846FFF736FE2F
:10194000402001900294039401A92846FFF72EFE3F
:10195000284D2748286010206860AC608027EF6021
:101960002C616C61AC61EC612846FFF7B3FDB56496
:101970006E621F481438443528606C60AC60EF60BC
:101980002C616C61AC61EC612846FFF7A3FDF56446
:101990006E6205B0F0BD184DA942FAD1C16941F49B
:1019A0008041C161C16901F480410091816941F0C8
:1019B00008018161806900F0080000904FF4204028
:1019C0000190029204930D4D01A92846FFF7EEFD08
:1019D0004FF4804101910294039401A92846FFF736
:1019E000E5FDD6E70030014000100240000801404C
:1019F00030000240F414002000380040000C014088
:101A00002DE9F84F04460A9E8A4693461F46012553
:101A10004FF0000894F8500001280ED0012084F8FF
:101A20005000FFF7C3FE814694F851006168012819
:101A30000DD0B1F5827F07D102E00220BDE8F88F1A
:101A4000A16809B9042802D04FF00208C3E0BAF136
:101A5000000F28D0BBF1000F25D0380023D094F818
:101A60005100042802D0052084F851000020606550
:101A7000C4F838B0E787A787C4F830A0E786A78600
:101A80002064606420680168490603D4016841F05D
:101A900040010160E068B0F5006F07D06068E8B30E
:101AA000012F48D07DE04FF0010894E0606808B154
:101AB000012F39D1206B21680088C860206B801C01
:101AC0002063E08E401EE0862EE020688168890752
:101AD0000DD5E18E59B1012D09D1216B0988C16065
:101AE000206B801C2063E08E401EE086002520686D
:101AF0008168C9070BD0E18F49B1C068A16B08802C
:101B0000A06B801CA063E08F401EE0870125FFF7DB
:101B10004DFEA0EB0900B04206D300E00BE0701CC4
:101B200002D04FF0030856E0E08E0028CDD1E08FC0
:101B30000028CAD13BE0206B216800780873206B35
:101B4000401C2063E08E401EE0862AE02068816809
:101B500089070DD5E18E59B1012D09D1216B097885
:101B60000173206B401C2063E08E401EE086002540
:101B700020688168C9070BD0E18F49B1C068A16BAB
:101B80000870A06B401CA063E08F401EE087012519
:101B9000FFF70CFEA0EB0900B04201D3701C11D17D
:101BA00086B1E08E0028D1D1E08F0028CED14A4600
:101BB0003146204601F0D3FA38B14FF00108202019
:101BC000606508E04FF0030805E0A06818B92068D8
:101BD000C16880680090012050346070002020703F
:101BE00040462BE710B5044620684169C1F3C01197
:101BF00094F83920212A0BD151B1416921F080019B
:101C00004161206B08B1FFF742FB204601F089FFDC
:101C100020684169C1F3801194F83A20222A0BD13F
:101C200051B1416921F040014161606B08B1FFF79A
:101C30002EFB204601F05AFF002010BD7047000027
:101C400070B5044622681068D168526900F00F032D
:101C5000002B08D1850606D58D0604D52046BDE8A3
:101C6000704001F067BF002B5ED002F0010301F469
:101C700090752B4358D0C30705D0CB0503D5E36B34
:101C800043F00103E363430705D5D30703D0E36BB8
:101C900043F00203E363830705D5D30703D0E36B67
:101CA00043F00403E363030705D5D20703D0E26BD7
:101CB00042F00802E263E26B002A2AD0800604D5D3
:101CC000880602D5204601F035FF20684069C0F340
:101CD0008010E16B090700D400B3204601F006FF35
:101CE00020684169490615D5416921F040014161EB
:101CF000606B58B115494163606BFFF7EBFA002840
:101D000007D0606B416BBDE8704008472046FFF785
:101D100095FF70BD2046FFF791FF70BD2046FFF78D
:101D20008DFF0020E06370BD020606D50A0604D5CB
:101D30002046BDE8704001F0D5BF4006F3D5480607
:101D4000F1D52046BDE8704001F0DEBE4D3A0008F6
:101D500070B50446002C04D094F83900002510B169
:101D600006E0012070BD84F83850204600F022F8CB
:101D7000242084F839002068C16821F40051C16032
:101D8000204601F025FF2068016921F4904101619E
:101D90002068416921F02A0141612068C16841F44D
:101DA0000051C160E563202084F8390084F83A00CE
:101DB000002070BD2DE9F04385B004460025019553
:101DC000029503950495DFF84CC121685248022220
:101DD0000323524E80274FF01008614552D181698C
:101DE00041F480418161816901F480410091816900
:101DF00041F004018161806900F00400009010024C
:101E000001900292049301A93046FFF7CFFB3015F1
:101E100001900295039501A93046FFF7C7FB414E9B
:101E20003F483060C6F80480B560F7603561756181
:101E30004FF02008C6F818804FF44059C6F81C909F
:101E40003046FFF747FB266374623548143044364A
:101E500030607560B560F76035617561C6F81880EF
:101E6000C6F81C903046FFF735FB666374620022AB
:101E700011462520FFF7B6FC2520FFF7A5FC05B08D
:101E8000BDE8F083DFF8A0C06145F8D1C16941F435
:101E90000031C161C16901F400310091816941F0F3
:101EA00004018161806900F0040000900420019029
:101EB0000292049301A93046FFF778FB08200190B5
:101EC0000295039501A93046FFF770FB1448154EA3
:101ED0002830883630607560B560F76035617561AF
:101EE000B561F5613046FFF7F5FA666374620C4838
:101EF0003C3044363060C6F80480B560F760356128
:101F00007561B561F5613046FFF7E4FA26637462E6
:101F1000B5E7000000380140001002400008014011
:101F200044000240341300200044004037B582B022
:101F30000446134694F83A00202802D0022005B047
:101F400030BD039AA2B39BB394F83800012832D075
:101F5000012084F83800A262A3850025E5632220D1
:101F600084F83A00616B15488862616B1448C86256
:101F7000616B14480863606B45632168606B091DE1
:101F8000FFF7DAFA206801684168019184F8385057
:101F9000C16841F48071C1602068416941F001016C
:101FA00041612068416941F0400141610020C6E77C
:101FB000FFE70120C3E70220C1E70000A73A0008BD
:101FC000E33A00085D3A0008704770472DE9F8438E
:101FD00004460D4691461E4694F83900202802D04A
:101FE0000220BDE8F883B5B1B9F1000F13D094F821
:101FF0003800012811D0012084F838000027E76359
:10200000212084F83900FFF7D1FB8046A4F8249002
:10201000A4F826902DE00120E3E70220E1E7E08C20
:10202000401EE084A068B0F5805F09D043460022DE
:1020300080212046009601F088FEB0B10320D0E751
:102040004346002280212046009601F07EFE08B122
:102050000320C6E728882168C0F30800486020698B
:1020600008B16D1C05E0AD1C03E0216815F8010BFB
:102070004860E08C0028D2D143460022402120460F
:10208000009601F062FE08B10320AAE72020383450
:10209000607027700020A4E77047000070B50A4602
:1020A00001780125072909D0064C2178002904D19F
:1020B00001460548FEF758F8257070BD03480570C5
:1020C00070BD000001000020A81100201D000020AC
:1020D0007047FEE708B50020009002F0E9F968B10A
:1020E0004EF29E7002F0F3F950B102F0E1F948B1FE
:1020F000684602F0BCF938B1012008BD002008BDD7
:10210000002008BD002008BD002008BD0349497813
:10211000002901D000F004B800F06CB87C15002054
:102120002DE9F043304D4FF4007CC5F800C02C156C
:102130002E1D34602C6034602C60C6F800C0346002
:102140002C6034602C60294F01223A602849CB7DF5
:1021500001EB4309B9F82010002904D034602C6049
:10216000491E0029FAD122491831595C491EDFF86D
:102170007C8008F1040859B1C30701D03A6001E03E
:10218000C8F8002034602C604008491E0029F3D1B3
:10219000B9F83010A1B1C00701D03A6001E0C8F829
:1021A000002034602C603A60491E21B134602C60FC
:1021B000491E0029FAD1C5F800C034602C6009E03E
:1021C000C5F800C0C00701D03A6001E0C8F800209F
:1021D00034602C6034602C60C6F800C034602C6021
:1021E0003A60BDE8F0830000100C01401008014087
:1021F0007C1500202DE9F0475B4C4FF40078C4F8C3
:10220000008004F1040C2715CCF80070574B596876
:102210000A46521EFDD127600A46521EFDD1CCF857
:1022200000700A46521EFDD127600A46521EFDD19B
:10223000CCF80080CCF800700A46521EFDD1276011
:102240000A46521EFDD1CCF800700A46521EFDD13E
:1022500027600A46521EFDD1454E0125356093F890
:10226000179003EB490ABAF820305BB1CCF8007044
:102270000A46521EFDD127600A46521EFDD15B1E42
:10228000002BF3D1394A183219F802305B1EDFF8FF
:10229000E09009F1040993B1C20701D0356001E073
:1022A000C9F80050CCF800700A46521EFDD12760D4
:1022B0000A46521EFDD140085B1E002BECD1BAF835
:1022C00030204AB3C00701D0356001E0C9F80050A2
:1022D000CCF800700846401EFDD127600846401E1D
:1022E000FDD13560521E5AB1CCF800700846401E30
:1022F000FDD127600846401EFDD1521E002AF3D1B1
:10230000C4F80080CCF800700846401EFDD127605C
:102310000846401EFDD110E0C4F80080C00701D07F
:10232000356001E0C9F80050CCF800700846401E46
:10233000FDD127600846401EFDD1CCF8007008464C
:10234000401EFDD127600846401EFDD1CCF800801C
:10235000CCF800700846401EFDD12760491EFDD113
:102360003560BDE8F0870000100C01407C150020AE
:10237000100801402DE9F041324A4FF40075156014
:102380001315141D2360304E71680846401EFDD1A0
:1023900013600846401EFDD1256023600846401E9C
:1023A000FDD113600846401EFDD123600846401E43
:1023B000FDD113600846401EFDD1F67D56B1236065
:1023C0000846401EFDD113600846401EFDD1761E12
:1023D000002EF4D100271F26DFF870C023600846C6
:1023E000401EFDD1DCF80000C0F340081360084631
:1023F000401EFDD147EAC8704708761E002EEDD179
:10240000156023600846401EFDD1DCF80000C0F3D3
:10241000400613600846401EFDD147EAC67023609F
:102420000E46761EFDD113600E46761EFDD1256048
:1024300023600C46641EFDD11360491EFDD1BDE82A
:10244000F0810000100C01407C15002008080140BC
:102450002DE9F04F00F03F03002B00D14023DFF8BF
:102460008CA045064FF40074AAF1040B02D5CBF8FA
:10247000004001E0CAF800404FF001094FF48068C5
:10248000DFF86CE02DE011F8016B0027082420E054
:10249000F50703D0174DC5F8009003E0154D2D1D2D
:1024A000C5F80090CAF80080DEF804C065466D1ECD
:1024B000FDD1104D083D2D68C5F34005CBF80080D7
:1024C000BCF1010CFCD176087F0847EAC517641EF1
:1024D0005B1E0CB1002BDBD1E740040601D502F8EE
:1024E000017B002BCFD1BDE8F08F0000140C014020
:1024F0007C15002010080140034A5278002A01D0C0
:1025000000F004B800F000B97C1500202DE9F04F70
:102510007A4F4FF400733B6007F1040C5E00CCF877
:1025200000603E60CCF80030CCF800603E60CCF833
:1025300000603E60DFF8C8E19EF81720002A05D051
:10254000CCF800603E60521E002AF9D142086D4C62
:10255000D507A4F104084FF0010202D0C8F800200A
:1025600000E02260CCF80060DFF898B1ABF10C0B12
:10257000DBF80050C5F340053E606D004FEA90095E
:102580005FEAC97902D0C8F8002000E02260CCF8E8
:102590000060DBF80090C9F340093E6045EA090598
:1025A0004FEAD0095FEAC97902D0C8F8002000E0FC
:1025B0002260CCF80060DBF80090C9F340093E606F
:1025C00045EA8909B9F1010F04D03B60CCF80060FD
:1025D0003E607BE0DFF828A185079AF816009AF89C
:1025E00017A0A0EB0A0A38D500241F20CCF8006001
:1025F000DBF800506D083E6044EAC5746408401E74
:102600000028F3D1AAF1010ABAF1000F18D0CCF8D2
:102610000060DBF80000C0F340003E60AAF1010A50
:10262000BAF1000F07D0CCF800603E60AAF1010AB1
:10263000BAF1000FF7D13B60CCF800603E6007E0D4
:102640003B60CCF80060DBF80000C0F340003E6067
:1026500044EAC07079B3086038E008681F21C507F4
:1026600002D0C8F8002000E02260CCF800603E6094
:102670004008491E0029F2D1AAF1010ABAF1000F5F
:102680001AD0C00702D0C8F8002000E02260CCF8C1
:1026900000603E60AAF1010ABAF1000F07D0CCF841
:1026A00000603E60AAF1010ABAF1000FF7D13B6069
:1026B000CCF800603E6009E03B60C00702D0C8F87B
:1026C000002000E02260CCF800603E60CCF80060A2
:1026D0003E60CCF80030CCF800603E60C8F80020C6
:1026E0009EF8080002E0CCF800603E60401E411CED
:1026F000F9D109F0FF00BDE8F08F0000100C014097
:102700007C150020140801402DE9F84FC74D4FF407
:10271000007CC5F800C005F1040A4FF48069CAF8CE
:102720000090DFF80CE3DEF8042013465B1EFDD1B9
:10273000C5F8009013465B1EFDD1CAF800C0CAF868
:10274000009013465B1EFDD1C5F8009013465B1E3A
:10275000FDD1CAF8009013465B1EFDD1C5F800906C
:1027600013465B1EFDD19EF8174064B1CAF8009075
:1027700013465B1EFDD1C5F8009013465B1EFDD1CC
:10278000641E002CF2D14308DC07AA4B4FF001066F
:10279000A3F1040701D03E6000E01E60CAF800907B
:1027A0001446641EFDD1DFF88CB2ABF10C0BDBF8E4
:1027B0000040C4F34004C5F800909046B8F1010809
:1027C000FCD164004FEA90085FEAC87801D03E600F
:1027D00000E01E60CAF800909046B8F10108FCD1F4
:1027E000DBF80080C8F34008C5F800909646BEF1BB
:1027F000010EFCD144EA08044FEAD0085FEAC87829
:1028000001D03E6000E01E60CAF800909046B8F12A
:102810000108FCD1DBF80080C8F34008C5F800903F
:102820009646BEF1010EFCD144EA88040094009C57
:10283000012C0BD0C5F800C0CAF800901046401E0D
:10284000FDD1C5F80090521EFDD1C2E0DFF8E08155
:10285000840798F8160098F81780A0EB080E5ED54C
:1028600000241F23CAF800901046401EFDD1DBF85B
:102870000000C0F34008C5F800901046401EFDD18E
:1028800044EAC87044085B1E002BEBD1AEF1010E88
:10289000BEF1000F2FD0C846CAF800901046401E67
:1028A000FDD1DBF80000C0F34000C5F800801346FE
:1028B0005B1EFDD1AEF1010EBEF1000F0ED0CAF8C5
:1028C000008013465B1EFDD1C5F8008013465B1ED9
:1028D000FDD1AEF1010EBEF1000FF0D1AB46C5F84F
:1028E00000C0CAF8008013465B1EFDD1CBF8008003
:1028F000521EFDD10EE0C5F800C04B46CAF800904C
:102900001046401EFDD1DBF80000C0F340002B60F4
:10291000521EFDD144EAC070F1B3086059E0086866
:102920001F24C10701D03E6000E01E60CAF800907D
:102930001146491EFDD1C5F800901146491EFDD132
:102940004008641E002CECD1AEF1010EBEF1000F68
:102950002FD0C00701D03E6000E01E604946CAF893
:1029600000901046401EFDD129601046401EFDD14A
:10297000AEF1010EBEF1000F0DD0CAF800101046E6
:10298000401EFDD129601046401EFDD1AEF1010E62
:10299000BEF1000FF1D100E01BE02B46C5F800C0EE
:1029A000CAF800101046401EFDD11960521EFDD11C
:1029B0000FE0C5F800C0C00701D03E6000E01E6017
:1029C0004946CAF800901046401EFDD12960521EAB
:1029D000FDD1CAF8009016494A681046401EFDD144
:1029E000C5F800901046401EFDD1CAF800C0CAF8D4
:1029F00000901046401EFDD1C5F800901046401EC4
:102A0000FDD13E600B7A09E0CAF800901046401EE6
:102A1000FDD1C5F800901146491EFDD15B1E581C22
:102A2000F2D10098C0B2BDE8F88F0000100C014050
:102A30007C150020140801402DE9F04F5E4B4FF447
:102A400000751D601E151F1D3E60DFF87081D8F8EF
:102A500004100A46521EFDD11E600A46521EFDD1C8
:102A60003D603E600A46521EFDD11E600A46521E5F
:102A7000FDD13E600A46521EFDD11E600A46521E1E
:102A8000FDD198F81740A44654B13E600A46521E44
:102A9000FDD11E600A46521EFDD1641E002CF4D1E9
:102AA000474C4FF00109C4F800903E600A46521EA0
:102AB000FDD11E600A46521EFDD13E600A46521EDE
:102AC000FDD11E600A46521EFDD13E600A46521ECE
:102AD000FDD11E600A46521EFDD14FF01F0ADFF8DD
:102AE000E0B0ABF1040BC20702D0CBF8009001E0DC
:102AF000C4F800903E600A46521EFDD11E600A4690
:102B0000521EFDD14008AAF1010ABAF1000FEAD124
:102B100098F81620A2EB0C02521E3AB3C00702D05E
:102B2000CBF8009001E0C4F8009034463E600846BF
:102B3000401EFDD11C600846401EFDD1521E52B100
:102B40003C600846401EFDD11C600846401EFDD179
:102B5000521E002AF4D11A461D603C600846401EF1
:102B6000FDD114600846401EFDD110E01D60C00775
:102B700002D0CBF8009001E0C4F8009032463E60ED
:102B80000846401EFDD11A600846401EFDD13E6039
:102B90000846401EFDD11E600846401EFDD13D6026
:102BA0003E600846401EFDD11E60491EFDD1CBF897
:102BB0000090BDE8F08F0000100C01407C15002053
:102BC0001408014008B51E48416941F00101416106
:102BD000406900F0010000901B481A4901604FF461
:102BE00080414160402181608021C16000210161FC
:102BF00041618161C161FEF76DFC002211460C202C
:102C0000FEF7F0FD0C20FEF7DFFD002211460D203F
:102C1000FEF7E8FD0D20FEF7D7FD0022114610203B
:102C2000FEF7E0FD1020FEF7CFFD00221146112037
:102C3000FEF7D8FDBDE808401120FEF7C5BD000035
:102C400000100240080002402C1200202DE9F04F35
:102C500085B000240194029403940494304881695F
:102C600041F010018161816901F0100100918169D9
:102C700041F020018161816901F0200100918169A9
:102C800041F004018161816901F0040100918169D1
:102C900041F008018161806900F008000090DFF8D0
:102CA00084904FF4C045002229464846FEF776FD41
:102CB000DFF874A04FF48877002239465046FEF7BB
:102CC0006DFDDFF868B041F60448002241465846E1
:102CD000FEF764FD019501250295039402260496F2
:102CE00001A94846FEF762FC0197029503940496F9
:102CF00001A95046FEF75AFC032001900294039468
:102D000001A95846FEF752FCCDF8048002950394C1
:102D1000049601A95846FEF749FC05B0BDE8F08FBE
:102D2000001002400010014000080140000C01406A
:102D300010B510480E4901604FF4827141600021C6
:102D40008160C160016141614FF4007282610822BB
:102D5000C2610162416281620A21C162FEF788FD9F
:102D6000054908B1022008700120087010BD00005C
:102D70000030014044140020060000200B480A499E
:102D800001604FF48271416000218160C160016186
:102D900041614FF400728261C161016241628162EE
:102DA0000A21C162FEF764BD003800409C14002077
:102DB00010B5104C0E4820600F4860600020A060E5
:102DC000E06020610C216161A061E0612046FEF7B6
:102DD000BFFF2068C16841F01001C1600748A4F13D
:102DE000440102782046BDE81040FFF79FB800007C
:102DF00000380140B412002080841E00050000202D
:102E000010B5104C0E4820604FF4E1306060002097
:102E1000A060E06020610C216161A061E06120465A
:102E2000FEF796FF2068C16841F01001C1600648B6
:102E3000A4F1840102782046BDE81040FFF776B87F
:102E400000440040F412002005000020FEE7704717
:102E500010B505220D49302000F0C2F80B490522BB
:102E60000A31102000F098F80020084A02F10A0107
:102E7000145C0B5CA34203D1401CC0B20528F7D3FD
:102E8000052801D0012010BD002010BD0E0000203B
:102E90002DE9F04104460D463D4F4FF48076002267
:102EA00031463846FEF77AFC05223A492A2000F0DE
:102EB00097F838490522491F302000F091F8012188
:102EC000212000F0B1F80121222000F0ADF81A21F4
:102ED000242000F0A9F82946252000F0A5F80F21AC
:102EE000262000F0A1F8012C24D0022C2BD0032C9A
:102EF00032D00E21202000F097F8FF21E12000F0D1
:102F000093F8FF21E22000F08FF8502000F03AF90A
:102F1000732000F037F901213C2000F085F80621EC
:102F20003D2000F081F831463846BDE8F0410122ED
:102F3000FEF734BC4121312000F076F80F2120202B
:102F400000F072F8EFE74121312000F06DF80E211A
:102F5000202000F069F8E6E7FF21E12000F064F8A6
:102F6000FF21E22000F060F80F21202000F05CF843
:102F7000502000F007F9732000F004F901213C20F3
:102F800000F052F806213D2000F04EF8CBE700009B
:102F900000080140130000202DE9F04104460D46D1
:102FA0001646DFF83880002210214046FEF7F6FB77
:102FB000204600F0E7F80746002405E0002000F076
:102FC000E1F82855641CE4B2B442F7D30122102181
:102FD0004046FEF7E3FB3846BDE8F08100080140BB
:102FE0002DE9F04104460D461646DFF838800022F0
:102FF00010214046FEF7D2FB204600F0C3F80746FA
:10300000002404E0285D00F0BDF8641CE4B2B44282
:10301000F8D3012210214046FEF7C0FB3846BDE838
:10302000F08100000008014070B506460D460A4CCC
:10303000002210212046FEF7B1FB304600F0A2F836
:103040000646284600F09EF8012210212046FEF791
:10305000A5FB304670BD0000000801402DE9F0419D
:1030600086B0002404941D48816941F010018161FB
:10307000806900F010000190194940F60160086075
:1030800040F2016002900126039603250595DFF8C2
:10309000508002A9A8F110084046FEF787FAF00216
:1030A0000290112703970496059502A94046FEF762
:1030B0007DFA0220029003940494059502A94046EB
:1030C000FEF774FA7003029003970494059502A921
:1030D0000448FEF76BFA06B0BDE8F081001002402C
:1030E000100C0140001001402DE9FF410024029422
:1030F00018494FF4606008604FF4C06000900127E9
:10310000019703250395DFF84C806946A8F1100864
:103110004046FEF74BFAF8020090112601960297FE
:10312000039569464046FEF741FA40F603000090D9
:1031300001940294039569464046FEF737FA7803F6
:10314000009001960294039569460348FEF72EFA13
:10315000BDE8FF81100C014000100140704738B5F8
:1031600004460B46009200228021204600F01CF805
:1031700028B1606D40F020006065032038BD00205C
:1031800038BD00003EB50190FF24012302AA01A929
:1031900004480094FEF734FC00B102949DF8080046
:1031A0003EBD0000441400202DE9F04104460E46C7
:1031B00017461D46DDF8188008E0681C06D0FEF7AB
:1031C000F5FAA0EB0800A8420BD255B12068806840
:1031D00036EA00002FD00020B842EED10020BDE832
:1031E000F0812068416821F0E00141606068B0F53D
:1031F000827F0BD1A068B0F5004F02D0B0F5806F90
:1032000004D12068016821F040010160A06AB0F596
:10321000005F09D12068016821F400510160206835
:10322000016841F4005101600120503460700020B9
:1032300020700320D3E70120CEE77047034A52787D
:10324000002A01D000F004B800F05EB97C1500201F
:103250002DE9F34F85B00546A94E4FF40079C6F825
:10326000009006F104083715C8F800703760E807C9
:1032700002D0C6F8009001E0C8F80090C8F80070CD
:10328000376029466808C20702D0C6F8009001E0FE
:10329000C8F80090C8F8007037600144A808C20759
:1032A00002D0C6F8009001E0C8F80090C8F800709D
:1032B00037600144E808C20702D0C6F8009001E078
:1032C000C8F80090C8F8007037600844C00702D002
:1032D000C6F8009001E0C8F80090C8F800703760A8
:1032E0004FF0000AC8F80090C8F800703760C6F8C0
:1032F0000090C8F800703760CDF808A0CDF80CA099
:10330000CDF804904FF0020BCDF810B07C4801A925
:103310001038FEF74BF97B48007D014628B1C8F80C
:1033200000703760401E0028F9D1C8F80070DFF83F
:10333000D0E1AEF1080EDEF80000C0F340203760A7
:10334000C8F80070DEF80020C2F34022376040EA7F
:103350004200C8F80070DEF80020C2F34022376057
:1033600040EA82044FF0010C012C1ED0022C71D0D7
:10337000042C6FD0213129B1C8F800703760491E84
:103380000029F9D1CDF80CA0CDF80490CDF808C0F3
:10339000CDF810B05A4801A91038FEF707F9C6F861
:1033A0000090E0B207B0BDE8F08FA80735D5002245
:1033B00000212020C8F80070DEF80030C3F340235D
:1033C00037601944520842EAC372401E0028F1D106
:1033D000C8F80070DEF80000400A37604140C807B6
:1033E00000D00824069808B1069802604548007D80
:1033F00028B1C8F800703760401E0028F9D1CDF818
:103400000CA0CDF80490CDF808C0CDF810B03C4821
:1034100001A91038FEF7CAF831E029B1C8F80070E8
:103420003760491E0029F9D1CDF80CA0CDF80490E1
:10343000CDF808C0CDF810B0314801A91038FEF71A
:10344000B5F80698006800222021C30703D0C6F80B
:10345000009002E022E0C8F80090C8F800703760E1
:1034600002444008491E0029EFD1D00702D0C6F817
:10347000009001E0C8F80090C8F80070376021485B
:10348000007A38B1C8F80090C8F800703760401E64
:103490000028F9D1C6F80090E0B283E7194A507DC0
:1034A00040B1A80706D52120C8F800703760401E3B
:1034B0000028F9D129B1C8F800703760491E0029E9
:1034C000F9D1CDF80CA0CDF80490CDF808C0CDF816
:1034D00010B00B4801A91038FEF768F80948407D84
:1034E00050B1A80708D4C8F800902120C8F800708F
:1034F0003760401E0028F9D1C6F80090E0B251E7CD
:10350000100C01407C1500202DE9F34F85B00646D4
:103510000022F54C4FF40079C4F8009004F104083F
:103520002715C8F80070F14D68680146491EFDD1A5
:1035300027600146491EFDD1F10702D0C4F8009072
:1035400001E0C8F80090C8F800700146491EFDD19E
:1035500027600146491EFDD193197208D10702D098
:10356000C4F8009001E0C8F80090C8F80070014667
:10357000491EFDD127600146491EFDD11344B20802
:10358000D10702D0C4F8009001E0C8F80090C8F854
:1035900000700146491EFDD127600146491EFDD13C
:1035A0001344F208D10702D0C4F8009001E0C8F833
:1035B0000090C8F800700146491EFDD12760014601
:1035C000491EFDD19918C90702D0C4F8009001E046
:1035D000C8F80090C8F800700146491EFDD1276068
:1035E0000146491EFDD18A46C8F80090C8F800700F
:1035F0000146491EFDD127600146491EFDD1C4F890
:103600000090C8F800700146491EFDD12760401E99
:10361000FDD1CDF808A0CDF80CA0CDF804904FF066
:10362000020BCDF810B0B04801A91038FDF7BEFF6D
:103630002A7D11000CD06B68C8F800701846401E37
:10364000FDD127601846401EFDD1521E002AF3D13D
:10365000C8F8007068680246521EFDD1DFF888C2C3
:10366000ACF1080CDCF80020C2F3402227600346CE
:103670005B1EFDD1C8F8007003465B1EFDD1DCF86F
:103680000030C3F3402327608646BEF1010EFCD113
:1036900042EA4303C8F800700246521EFDD1DCF82E
:1036A0000020C2F34022276005466D1EFDD143EA8B
:1036B0008205012D24D0022D71D0042D6FD021312F
:1036C00059B1C8F800700246521EFDD1276002466B
:1036D000521EFDD1491E0029F3D1CDF80CA0CDF822
:1036E000049001200290CDF810B07F4801A9103855
:1036F000FDF75CFFC4F80090E8B207B0BDE8F08FBA
:10370000B2074DD54FF0000E00232022C8F80070FC
:103710000146491EFDD1DCF80010C1F340262760A8
:103720000146491EFDD133444FEA5E0141EAC67E9F
:10373000521E002AEAD13A46C8F800706B4E014684
:10374000491EFDD1DCF80010C1F340212260401E6B
:10375000FDD14B40D80700D00825069810B1069837
:10376000C0F800E0337D63B17668C8F800203046C9
:10377000401EFDD122603146491EFDD15B1E002B4B
:10378000F3D1CDF80CA0CDF8049001200290CDF833
:1037900010B0554801A91038FDF708FF47E05CE07C
:1037A00059B1C8F800700246521EFDD1276002468A
:1037B000521EFDD1491E0029F3D1CDF80CA0CDF841
:1037C000049001200290CDF810B0474801A91038AC
:1037D000FDF7ECFE069800684FF0000C20264349E8
:1037E0004B68C10702D0C4F8009001E0C8F800900F
:1037F000C8F800701946491EFDD127601A46521EAE
:10380000FDD184444008761E002EEAD15FEACC70D8
:1038100002D0C4F8009001E0C8F800903946C8F81A
:1038200000701846401EFDD121605B1EFDD12F485F
:10383000017A71B1C8F800904268C8F8007010466B
:10384000401EFDD127601046401EFDD1491E0029B3
:10385000F3D1C4F80090E8B24FE7DFF890C09CF8CD
:10386000152072B1B2070CD52123C8F800700246AA
:10387000521EFDD127600246521EFDD15B1E002B59
:10388000F3D159B1C8F800700246521EFDD127602D
:103890000246521EFDD1491E0029F3D1CDF80CA0DD
:1038A000CDF8049001200290CDF810B00E4801A987
:1038B0001038FDF77BFE0D48417D89B1B1070FD46B
:1038C000C8F8009021214268C8F800701046401ED8
:1038D000FDD127601046401EFDD1491E0029F3D1BD
:1038E000C4F80090E8B208E7100C01407C150020F5
:1038F0002DE9F04100220023134C124F4FF40076C3
:10390000A7F1040C4FF48068656815E013B911F84D
:10391000012B0823D40702D0CCF8006000E03E6001
:10392000C7F800802C46641EFDD1CCF800802C46E0
:10393000641EFDD152085B1E401E441CE6D1BDE84A
:10394000F0810000140C01407C150020AFF30080D2
:103950000CB50022019200922548016841F48031A3
:103960000160016801F4003100910199491C019145
:1039700000990029F5D00168890302D50121009141
:1039800000E000920099012930D11A490A6842F0FA
:1039900010020A600A6822F007020A600A6842F010
:1039A00004020A604168416041684160416841F435
:1039B00080614160416821F47C114160416841F4BB
:1039C000E8114160016841F080710160016889017E
:1039D000FCD5416821F003014160416841F00201DA
:1039E00041604168C1F381010229FAD10CBD000098
:1039F0000010024000200240FDF7DEBE10B50F4867
:103A0000016841F00101016041680D4A11404160C7
:103A100001680C4A11400160016821F480210160B5
:103A2000416821F4FE0141604FF41F018160FFF7FE
:103A30008DFF05494FF00060086010BD0010024086
:103A40000000FFF8FFFFF6FE08ED00E010B5406A49
:103A50000021C185C184FEF7F1F810BD70B5446A3C
:103A600020684069C0F3C01094F83910002521295E
:103A700004D118B1E584204600F053F8206840696D
:103A8000C0F3801094F83A10222904D118B1E585CA
:103A9000204600F02BF8E06B40F01000E063204679
:103AA000FEF7CCF870BD10B50146486A0968096890
:103AB000890613D40021C1850168CA6822F4807286
:103AC000CA6001684A6922F001024A6101684A69D4
:103AD00022F040024A61202180F83A10FEF774FA81
:103AE00010BD10B5406AFEF770FA10BD0168CA68D3
:103AF00022F49072CA6001684A6922F001024A61A8
:103B0000202180F83A10704710B50168CA6822F089
:103B10004002CA60202180F83910FEF7BDFA00206B
:103B200010BD0168CA6822F0C002CA60202180F876
:103B30003910704710B590F83A10222901D00220B0
:103B400010BD8168B1F5805F11D0016919B30168BA
:103B5000496801F07F03816A4A1C82620B70C18D43
:103B6000491E0904090CC1851CD0002010BD816AC2
:103B700002693AB102685268D2B20A80816A491C6D
:103B80008162ECE702685268C2F308020A80816A27
:103B9000891C8162E3E701684A68816A4B1C836281
:103BA0000A70DCE70168CA6822F02002CA60016876
:103BB000CA6822F48072CA6001684A6922F0010270
:103BC0004A61202180F83A10FEF7FEF9002010BD6E
:103BD0002DE9F041044620680169E26821F4405172
:103BE00011430161A16820690143606901432068B4
:103BF000C26841F20C639A430A43C260206841697B
:103C0000A26921F44071114341613549206864255E
:103C10003226884232D1FDF71BFE00EBC00101EBDA
:103C2000001061686FF018078900B0FBF1F2B2FB79
:103C3000F5F2B0FBF1F37A4303EB8202B0FBF1F350
:103C400006EB0212B2FBF5F2B3FBF5F302F0F00261
:103C500002EB0312B0FBF1F3B0FBF1F0B0FBF5F0B7
:103C6000784303EB800006EB0010B0FBF5F0216811
:103C700000F00F0010448860BDE8F081FDF7D8FD2A
:103C800000EBC00101EB001061686FF018078900BC
:103C9000B0FBF1F2B2FBF5F2B0FBF1F37A4303EBC8
:103CA0008202B0FBF1F306EB0212B2FBF5F2B3FBBA
:103CB000F5F302F0F00202EB0312B0FBF1F3B0FBFC
:103CC000F1F0B0FBF5F0784303EB800006EB001059
:103CD000B0FBF5F0216800F00F0010448860CBE7DE
:103CE0000038014090F83910212901D00220704796
:103CF0008168B1F5805F0CD0016A4A1C02620268DB
:103D000009785160C18C491E0904090CC18410D086
:103D100019E0016A02680988C1F30801516001696C
:103D200019B1016A491C0162ECE7016A891C016250
:103D3000E8E70168CA6822F08002CA600068C168CA
:103D400041F04001C160002070472DE9F041044678
:103D50000E4617469846069D1DE0681C1BD02DB1E7
:103D6000FDF724FDA0EB0800A84214D92068C16823
:103D700021F4D071C1602068416921F001014161E5
:103D8000202084F8390084F83A00002084F83800B4
:103D90000320BDE8F0812068006836EA000004D006
:103DA0000020B842D9D00020F3E70120F9E7000055
:103DB00008B50F4800680168C943C90612D40168F4
:103DC00041680091016840680948FDF70BFF094808
:103DD0000068406808490978081A084908700849C5
:103DE00001200870BDE808400148FDF729BF000028
:103DF000B4120020781300200500002003000020EA
:103E00000400002008B50F4800680168C943C906CE
:103E100012D4016841680091016840680948FDF7C3
:103E2000E1FE09480068406808490978081A08490D
:103E30000870084901200870BDE808400148FDF7F6
:103E4000FFBE0000F4120020BC130020050000207B
:103E5000030000200400002070B5074E074C47F611
:103E6000FF7505E0258001F00F01304600F06CFD84
:103E700021880804F6D470BDBC160020445C0040C4
:103E80002DE9F0411F4F204D47F6FF7605E02E80CB
:103E900004F00F01384600F057FD2C882004F6D4BA
:103EA000DFF8688060054FF000060BD54FF6FF3055
:103EB000288008F104000680384600F0E7FF8020E3
:103EC000A8F80000200511D54FF2FF702880B8F83F
:103ED0000000400607D0A8F800600B48001F0188CA
:103EE00021F400610180384600F016FCE00405D59D
:103EF0004EF6FF702880384600F002FC2E80BDE8A8
:103F0000F0810000BC160020445C00404C5C004086
:103F1000FEE70907090E002804DB00F1E02080F825
:103F20000014704700F00F0000F1E02080F8141D2D
:103F3000704702E008C8121F08C1002AFAD1704772
:103F40007047002001E001C1121F002AFBD1704719
:103F500010B54B78042B37DD202B06D0212B17D042
:103F6000222B28D0232B2FD12AE011785378D47814
:103F700041EA032193781B0443EA0463194340F8A0
:103F80002C1F1179017151794171917981711BE077
:103F900010F82C1F11700188090A51700168090C72
:103FA00091700168090ED1700179117141795171D7
:103FB0008079907108E0026A32B14988904703E045
:103FC000426A0AB149889047002010BD38B50446BE
:103FD0006268A08C116881420CD9516851F8205058
:103FE0000C3204F120012846FFF7B2FFE96909B15C
:103FF0002846884700200346024601460090204696
:1040000000F0ACFF38BD7047014882600120704766
:104010008811002010B5417A006801F06FF8002087
:1040200010BD70B50C46DDE9045116461A462581CF
:1040300022608D4200D90D462B46314600F004FF28
:10404000608A401C60822068284420602089401BD0
:104050002081E58170BD000070B5054601F0B8F91A
:10406000084C216941F0020121616561206940F03D
:104070004000206101F0ACF9206920F002002061CD
:1040800070BD00000020024004480169090603D504
:10409000034941600349416070470000002002402D
:1040A00023016745AB89EFCD2DE9F04105460F4669
:1040B0001446A00500D0FEE70C48016819B901219B
:1040C0000160FFF7E1FF4FF480660BE02846FFF741
:1040D000C3FF32463946284601F08CF9A4F58064C6
:1040E00005F58065B442F1D2BDE8F081941100205D
:1040F000F8B504466368A08C196881420DD95968E7
:1041000051F82000C16841B1618CCAB2090A456901
:104110001DB1E68C0C330096A847002003460246EA
:1041200001460090204600F019FFF8BD10B5114679
:10413000034841600348FDF7B1FF012010BD0000B6
:10414000881100204C17002010B5417A006800F05B
:10415000D5FFFDF7BDFF002010BD000070B504467F
:10416000344B198847F27000014043F2200251405D
:1041700048F28025294319802F4968230B80282382
:104180000B8122258B896FF3090365F38F238B81C4
:10419000284D2D1D2B8848F28106034053403343A0
:1041A0002B80C8230B82A8230B8310258B8B6FF3E6
:1041B000090365F38F238B831E4B08331D8848F258
:1041C00082660540554035431D804FF494730B843F
:1041D000E8230B8522258B8D6FF3090365F38F236D
:1041E0008B85144D10352B880340534048F28400D2
:1041F00003432B804FF4D470A1F840004FF4B47007
:10420000A1F848002222B1F84C006FF3090062F3D4
:104210008F20A1F84C00882104F10800FBF7BDFFB6
:104220000020A0810548A0610548E0610548C4F868
:104230008C0070BD005C00400060004055550008D7
:10424000505500085C55000810B5002305E0DC005F
:1042500021FA04F4C4545B1CDBB29342F7D310BDC3
:10426000002000F029FC04460D49204600F00DFF17
:10427000204600F095FDFCF7E6FBFCF73FFFFEF75C
:1042800097FDFEF7BDFDFEF7E3FD0649087018B97E
:1042900033210320FEF7FCFD01F046F8FCE70000A7
:1042A0001C1100200000002070B5154604988402FF
:1042B0000448224600EB83212846FBF755FF2046A1
:1042C00070BD00000060000810B51146029884021D
:1042D0000348224600EB8320FFF7E6FE204610BD90
:1042E000006000084FF480601860282010600020F3
:1042F000704770B504460D461346617A2A46206819
:1043000000F0F1FE617A2068BDE8704000F0F6BE72
:104310002DE9FF41FCF7F2FE0024029419494FF405
:10432000606008604FF4C06000900127019703258A
:104330000395DFF850806946A8F110084046FDF764
:1043400035F9F80200901126019602970395694607
:104350004046FDF72BF940F60300009001940294CB
:10436000039569464046FDF721F9780300900196D0
:104370000294039569460448FDF718F904B001203A
:10438000BDE8F081100C014000100140F8B500209C
:104390000090002464252349401E08604860FFF710
:1043A000B7FFFDF797FE90B11E21002000F050F9F5
:1043B00078B10021082000F04BF960B14FF0A04126
:1043C000042000F045F940B14FF0204611E00020F4
:1043D000F8BD0020F8BD0020F8BD0020F8BD6946FA
:1043E000042000F023F850B1009936EA010002D011
:1043F000641CAC42F3DBAC4203D10020F8BD0020CA
:10440000F8BD0949042000F023F930B1002108204B
:1044100000F01EF918B10120F8BD0020F8BD002001
:10442000F8BD000024000020000F005038B50C46F5
:1044300000F00C00801C694600F055F80022226054
:104440009DF8031042EA016121609DF8022041EAD3
:10445000024121609DF8012041EA022121609DF87E
:10446000002011432160012800D0002038BD1CB578
:1044700004460020019001A90820FFF739FA694697
:104480000020FFF7D3FF012801D000201CBD9DF8BC
:1044900000009DF803109DF8012040EA01609DF89E
:1044A0000210090441EA02210843206001201CBDDA
:1044B0001CB500206A46FF211154401CC0B20828D8
:1044C000FAD369463320FFF713FA01201CBD08B563
:1044D0008DF80000000A8DF8010069461020FFF7F2
:1044E00007FA012008BD70B505460E460024314686
:1044F0002846FEF7A3FE022803D1641CE4B20A2C6E
:10450000F5D370BD38B504460D4604F07F4104F084
:10451000F0000143082000F09BF808B14CB901E01D
:10452000002038BD0F484168A94201D1012038BDA3
:10453000456004F00C04641C042229466846FFF719
:1045400083FE69462046FFF7CEFF012801D00020F8
:1045500038BD0E200021FFF7C6FF0128F8D000204B
:1045600038BD000024000020F8B507460D46002A9B
:1045700013D0960816490020FFF7C4FF78B1052430
:10458000042239466846FFF75FFE69462046FFF77A
:10459000AAFF012805D00020F8BD0020F8BD0020AA
:1045A000F8BD0D27002409E029463846FFF79BFF98
:1045B000012801D00020F8BD2D1D641CB442F3D3A6
:1045C0000E200021FFF78FFF0128F4D00020F8BD56
:1045D0005200002370B505460C4609490020FFF73C
:1045E00091FF48B1A807C00E04FA00F1284600F078
:1045F00009F818B1012070BD002070BD002070BD09
:104600005000002338B50C46014604226846FFF7E7
:104610001BFE05206946FFF766FF012801D0002038
:1046200038BD042221466846FFF70EFE0D2069467C
:10463000FFF759FF012801D0002038BD0E200021CE
:10464000FFF751FF012801D0002038BD012038BDFF
:1046500038B5082806D10A4A13688B4201D10120D7
:1046600038BD116000F00C0404226846FFF7ECFD31
:1046700069462046FFF737FF0128F1D0002038BDFA
:10468000240000202DE9F04105460E46144607E0BF
:1046900031782846FFF79EFF40B16D1C761C641EE2
:1046A0000CB1A807F4D1DFF8548014E00020BDE875
:1046B000F081D8F80000411E2940471ABC4201D2BF
:1046C00024F003073A4631462846FFF74DFF28B14C
:1046D0003D443E44E41B032CEBD809E00020E6E710
:1046E00031782846FFF776FF30B16D1C761C641ECA
:1046F000002CF5D10120DAE70020D8E720000020C7
:104700000448018821F0040101804FF41C4101801C
:1047100070470000405C00400448018841F00801F7
:104720000180018841F0040101807047405C004035
:1047300010B50446208B617A83B26269206800F06C
:10474000D2FC617A206800F0D9FC0020E072A07AE7
:1047500038B1042805D821684968401E01EB800063
:10476000C464002010BD30B411461A46C468002C41
:1047700002D0A44630BC604730BC00207047000027
:10478000F8B50D46046862682978C1F34113012B1E
:1047900001D00020F8BDEB88F3B1090613D50C3227
:1047A00016462946FFF7D4FBEB88E08C834201D004
:1047B000802000E00020009032460021204600F0DA
:1047C000CDFB0120F8BD0C320021204600F08BFC0F
:1047D000084860610120F8BD0C322946FFF7B8FB9C
:1047E00000200346024601460090204600F0B6FB3A
:1047F0000120F8BDCD3F0008027A8A4202D101694A
:1048000029B10847827A8A4201D10021C172002071
:1048100070474068002811D00A7802F00302012A8C
:104820000CD18A880368934208D9406850F8220066
:1048300020B1426812B1526802B11047002070479F
:10484000F0B501F07F0048F2C0064CF280054BF64F
:104850008F7448F2800348F68F7200281DD00F062F
:104860004FEA4160234901EBD0502ED5B0F8001C2F
:10487000490605D5B0F8001C11403143A0F8001CD2
:10488000B0F8001C48F6BF72114081F0100181F0B1
:1048900020011943A0F8001CF0BD17480188490603
:1048A00003D501881140314301800188490403D5B3
:1048B00001881140294301800188214081F4805101
:1048C00081F4005119430180F0BDB0F8001C490487
:1048D00005D5B0F8001C11402943A0F8001CB0F821
:1048E000001C214081F4805181F400511943A0F84B
:1048F000001CF0BD00500040005C0040002204E0BD
:104900000021491CC829FCD3521C8242F8D37047AD
:104910000B48816941F0040181610A48016841F452
:1049200080210160016821F400210160016841F4E7
:104930004031016003498014103108607047000065
:1049400000100240040801402DE9F04180460E4667
:104950001F4800EB8605B5F8004C20040AD540F648
:104960008F77A6B104EA0700A5F8000C314640464F
:1049700000F0A2FA200628D548F60F700440A5F8EA
:10498000004C31464046BDE8F04100F027BB200511
:1049900008D508F12001404600F072FA404600F0C8
:1049A000F5FB03E03146404600F086FA094804EA88
:1049B000070101804BF68F7204EA020181F4405135
:1049C00048F2800211430180D4E7BDE8F081000085
:1049D00000500040005C0040F8B504460E4600213F
:1049E00000257088020A082A46D2DFE802F0450452
:1049F0000A1045451C38D4F88C00016871B30D7855
:104A00003AE0D4F88C00416841B34D8834E0C0B23C
:104A1000D4F88C20D36883422ED9916851F82010A5
:104A2000E1B10D7828E021680A200870216806208D
:104A30004870D4F88C1020680968D1F80220C0F8BA
:104A40000220C988C180D4F88C0021680068407CAD
:104A500008722168002048720A2521680CE0D4F809
:104A60008C00416801B14D8820682A46FBF77CFB29
:104A70002168072048702168C1B1F088A84200D899
:104A800005462068884203D02A46FBF76DFB216863
:104A9000E08CA84201D0802000E000200A4600906F
:104AA0002B460021204600F059FAF8BD2046BDE80B
:104AB000F840002100F03ABB024800F58071086020
:104AC00008467047BC15002010B50446A08C617ADA
:104AD00083B2226A206800F006FB617A2068BDE894
:104AE000104000F00BBB30B411461A46C468002CCD
:104AF00002D0A44630BC604730BC002070470000A4
:104B0000F8B5046865680A7802F00303012B27D121
:104B10004B78062B24D14B882226B6EB132F1FD1BE
:104B2000038E9FB2866ADEB1D7B1C888B84200D87A
:104B300007462068B04204D03A463146FBF714FBE2
:104B40002668E08CB84201D0802000E00020009070
:104B50003B4632460021204600F000FA0120F8BD15
:104B6000C2F34112012A01D00020F8BD4A78002684
:104B70000C2A73D2DFE802F0725316387272727226
:104B8000724806294988090A80F83410C16901B1C0
:104B9000884700231A4619462046009600F0DEF9A1
:104BA0000120F8BD90F834002873E08C012801D072
:104BB000802000E000200090012305F10C0200217C
:104BC000204600F0CBF90120F8BD897880F8351037
:104BD000C16901B1884700231A461946204600964C
:104BE00000F0BCF90120F8BDE08C012801D0802044
:104BF00000E000200090012305F10C020021204676
:104C000000F0ACF90120F8BDCB8805F10C020021C1
:104C1000204600F068FA124860610120F8BD628CFD
:104C200002F0FF0C170A002386693EB1C988009183
:104C300005F10C0362463946B04783B2E08C9842D6
:104C400001D0802000E00020009005F10C0200213E
:104C5000204600F083F90120F8BDFFE70020FBE7C4
:104C6000F14000080169002900D008470020704782
:104C700010B504461F2204F128012046FFF739FB36
:104C800041F25E0000210155206A002806D001682B
:104C9000002903D02046BDE81040084710BD30B4BD
:104CA00011461A4641F258031A52C468002C02D029
:104CB000A44630BC604730BC0120704738B504467C
:104CC000206842680878C0F34113012B04D14B7867
:104CD000FE2B03D0FF2B19D0002038BD4B889BB989
:104CE000C988012910D100060ED5A07A107320685A
:104CF000C18C012901D0802100E000210091012315
:104D00000C32002100F02AF9012038BD4A884AB946
:104D1000C98839B9000605D4206A18B1416809B1BB
:104D2000204688470020002300901A461946206834
:104D300000F014F9012038BD10B500F580515A314A
:104D40004A880A800169002900D08847002010BDE8
:104D500030B440684C060DD001F07F04641E00EBB7
:104D60008400C06D30B1446824B1E46814B1A44635
:104D700030BC604730BC0020704740684A060ED007
:104D800001F07F02521E00EB8200C06C002806D0AA
:104D90004268002A03D09268002A00D0104770476A
:104DA00010B5FFF7B5FD1420FFF7A8FD154AD0692F
:104DB00040F40000D061144B0120188000241C80B6
:104DC000181D01884905FCD504800F481030048067
:104DD0004FF41C401880906940F0040090610B482B
:104DE000016841F480210160016821F40021016023
:104DF000016821F44031016005494FF480100860DA
:104E000010BD000000100240405C0040040801405A
:104E100000E100E030B58888C0F309000988094B3B
:104E2000490803EB8101431C5D08002306E031F8CB
:104E3000044B1470240A5470921C5B1CAB42F6D3D2
:104E400030BD00000060004030B5581C450808889F
:104E50000A4C400804EB8004888863F309008880CA
:104E6000002008E01178537841EA0321921C24F8CD
:104E7000041B401CC0B2A842F4D330BD0060004007
:104E80000A460149FFF7C6BF0860004070B5456893
:104E9000002D10D0A9688847002409E0686850F800
:104EA000240020B1416811B1096801B18847641C30
:104EB0002868A042F2D870BD2DE9F04706460D469D
:104EC00005EB850006EB80042834224800EB8509B9
:104ED000B9F8008C204800EB0517606800281FD047
:104EE000F7B1A189421839463046FFF793FFB988D8
:104EF0006FF30901B980A18901448BB2A381B16923
:104F0000495D814202D16089834209D30027C5B13E
:104F1000294630466268FFF71BFFC8B16089A0814F
:104F2000A089618988420AD24BF68F7008EA00088E
:104F300088F4405048F280010843A9F8000CBDE80D
:104F4000F087716911B13046884777616760E7E79C
:104F5000A781E5E700500040086000402DE9FC41D2
:104F60001746089A0C461B4901EB8406B6F8005C0C
:104F700004EB840100EB810128314FEAD21C0A8A3C
:104F80006CF300020A820A894FF0FF3C002A02D02B
:104F90006046BDE8FC81C5F30112022A01D06046DB
:104FA000F7E700224A82C269125DCDE900320A4A5F
:104FB0003B4602EB0412FFF734F848F6BF70054099
:104FC00085F0300048F280010843A6F8000C00206C
:104FD000DFE7000000500040006000402DE9FC4188
:104FE00004460B4603EB830004EB800128311E4886
:104FF00000EB8305B5F8000C00264E821B4800EB41
:1050000003120889002809D10F7CFF071ED0D4F8AD
:105010001CC0CF891CF803C0674517D1E669F35C53
:10502000CDE9000320460B68FEF7FBFFB5F8000C46
:1050300048F6BF71084080F0100080F0200048F270
:1050400080010843A5F8000CBDE8FC812BB119468E
:105050002046BDE8FC41FFF790BE21690029F3D04E
:10506000204688472661EFE700500040006000407E
:10507000017A002905D0034A41F080011180002106
:10508000017270474C5C0040704710B50022CA6442
:105090000A654A658A65CA650A664A668A660023A1
:1050A0001CE04A6852F82320BAB11468844200D048
:1050B0001060147A3CB104F07F04042C03D8641E01
:1050C00001EB8404E264547A3CB104F07F04042CC4
:1050D00003D8641E01EB8404E2655B1C0A689A42F3
:1050E000DFD8416010BD01EB810100EB8100C2629D
:1050F0004386002181860020704700000A4A02EBA7
:105100008102B2F8003C01EB810100EB810000213B
:1051100081864BF68F70034083F4405048F2800143
:105120000843A2F8000C70470050004010B501F091
:105130007F0048F6BF7348F2800200280FD00C06AB
:105140004FEA41600F4901EBD05010D5B0F8001C78
:10515000194081F010011143A0F8001C10BD0A494C
:105160000888184080F010001043088010BDB0F887
:10517000001C4BF68F73194081F480511143A0F845
:10518000001C10BD00500040005C004070B505469A
:1051900005F1200421462846FFF73BFB002805D1F6
:1051A00021462846BDE8704000F002B870BD0000FE
:1051B00038B504464A78002559480C2A7ED2DFE8E3
:1051C00002F01A84A95EA90615A92A3A44548878DF
:1051D00020722046FFF758FF5248206100231A46EC
:1051E000194620460095FFF7B9FE38BD2046BDE8B8
:1051F0003840FFF7F1BBA1890160E08C022801D0A3
:10520000802000E0002000900223454A0021204633
:10521000FFF7A4FE38BD617A0160E08C012801D05F
:10522000802000E00020009001233D4A002120461C
:10523000FFF794FE38BD8878607200231A4619463D
:1052400020460095FFF78AFE38BDA17A0160E08C08
:10525000012801D0802000E0002000900123304A86
:1052600000212046FFF77AFE38BD8878A07200231F
:105270001A46194620460095FFF770FE38BD08789B
:1052800000F00300022803D0488801280AD016E065
:10529000097901F07F00052811D22046BDE8384089
:1052A000FFF744BFE07A40F00100E07200231A46A5
:1052B000194620460095FFF751FE38BD2AE02046EA
:1052C000BDE838400021FFF731BF087800F0030047
:1052D000022803D0488801280AD015E0097901F096
:1052E0007F00052810D22046BDE83840FFF7A8BA55
:1052F000E07A20F00100E07200231A4619462046A9
:105300000095FFF72BFED8E72046BDE83840002186
:10531000FFF70CBF2046BDE838400021FFF706BF6D
:105320002C000020715000082DE9F0411F4C002591
:105330001F4E2078002804D0062817D0072832D125
:105340001FE01C4F3878012801D1307808B1257052
:1053500029E001203070402217491848FAF704FF6D
:1053600006202070164805703D701CE0412115484C
:10537000FAF713FF13491148FBF7EAFA07202070E8
:1053800011E04FF47A773B4640220E490E48FCF775
:105390001DFE0028F7D10D48074902780A48FCF79E
:1053A000C5FD257035700020BDE8F08102000020A9
:1053B000010000200400002070120020A81100202D
:1053C00003000020E9110020B41200200500002095
:1053D0004FF48010064902E0002803DD401ECA6831
:1053E000D207F9D1C868800601D52020C86070476F
:1053F000002002402DE9F04105460C461646FFF715
:10540000E7FF0C4F386940F00100386109E020786F
:10541000617840EA01202880FFF7DAFFB61EA41C5D
:10542000AD1C022EF3D2386920F001003861BDE8CE
:10543000F0810000002002403939365F39393600EA
:1054400012010002EF020140830411000001010279
:1054500003010000090282000401008064090400C5
:1054600000020300000009211101000122180007B9
:1054700005820340000107050203400001080B01FB
:1054800002020201000904010001020201000524D8
:105490000010010524010001042402020524060075
:1054A000010705880310000109040200020A000038
:1054B0000007058102200001070501022000010903
:1054C000040300020806500007058402400001079B
:1054D0000504024000010000040309040E034B0010
:1054E00053005F00440049005900000022034B00B4
:1054F00053002000390039003600200043004D00E1
:105500005300490053002D004400410050000000AA
:1055100018033900390036005F00390039003600C1
:105520005F00390039003600D8540008DC54000808
:10553000EC540008105500080600FF0901A10109FC
:1055400002150025FF75089540810209039102C0EC
:1055500040204000404020400040000040540008EF
:105560005454000828550008040000003147000882
:1055700081470008F947000867470008C94A000842
:10558000014B0008654C0008E74A0008714C000810
:10559000BD4C0008394D00089F4C00080000000079
:1055A00001020304C455000800000020A8110000F7
:1055B000D401000858560008A81100200816000061
:1055C000423F00084201824114AABBCC3A01059136
:1055D000021204137C5524080202132D411B0849B2
:1055E00004C1134C173320401A382441B2181A6CE6
:1055F00014140101081309401B0815041A8C2C32DD
:10560000201A070C01241A8C409A049013E5421BBF
:1056100008A9041AC90401FF01FF01FF01FF01FFEE
:1056200001FF01FF01FF01FF01FF01FF01FF01FF7A
:1056300001FF01FF01FF015422301B206804411AC1
:10564000A8083204130C1114205D4102710835A220
:085650004A0401721000000081
:0400000508000131BD
:00000001FF
